:100000000C942A000C9434000C9434000C943400AA
:100010000C9434000C9434000C9434000C94340090
:100020000C9434000C9434000C9434000C94340080
:100030000C9434000C9434000C9434000C94340070
:100040000C9434000C9434000C9434000C94340060
:100050000C94340011241FBECFE5D4E0DEBFCDBF29
:100060000E9498000C94E4000C94000081B3806F0F
:1000700081BB80E582BB80E49CE9FC013197F1F70C
:1000800012BA0197F1F7089581B3806F81BB82B3F3
:10009000806582BB82B38F7582BB089581B3806F08
:1000A00081BB82B3806A82BB80E49CE9FC0131970A
:1000B000F1F712BA0197F1F7089581B3806F81BB10
:1000C00082B3806A82BB82B38F7A82BB089581B388
:1000D000806F81BB949A82B38F7182BB80E49CE96C
:1000E000FC013197F1F712BA0197F1F7089581B346
:1000F000806F81BB949A82B38F7182BB089581B364
:10010000806F81BB969A82B38F7482BB80E49CE936
:10011000FC013197F1F712BA0197F1F7089581B315
:10012000806F81BB969A82B38F7482BB08950895C5
:100130008AB388738ABBBC9A81B3806F81BBC8992C
:100140000AC0CF9908C0CE9906C0CA9904C0C999FF
:1001500002C00E943600CE9906C0CF9B04C0C89B47
:1001600002C00E944400CE9BEACFCF9BE8CFC89B41
:10017000E6CF0E946700CE99E2CFCF9BE0CFC89B2D
:10018000DECF0E943600C899DACFCF99D8CFCE996A
:10019000D6CFCA99D4CFC999D2CF0E947F00CE9929
:1001A000CECFCF9BCCCFC89BCACF0E944400C8996A
:1001B000C6CFCF99C4CFCE99C2CFCA99C0CFC99963
:0C01C000BECF0E943600BBCFF894FFCFEA
:00000001FF
