:100000000C942A000C9447000C9447000C94470071
:100010000C9447000C9447000C9447000C94470044
:100020000C9447000C9447000C9447000C94470034
:100030000C9447000C9447000C9447000C94470024
:100040000C9447000C9447000C9447000C94470014
:100050000C94470011241FBECFE5D4E0DEBFCDBF16
:1000600010E0A0E6B0E0E0E5FCE002C005900D92F3
:10007000AC37B107D9F710E0ACE7B0E001C01D9292
:10008000A438B107E1F70E9480040C9426060C9472
:100090000000AF92BF92CF92DF92EF92FF920F9348
:1000A0001F9321B3206F21BB20E522BBA0E0B0E06D
:1000B000BC01CD010E94DA045B016C0120E030E05C
:1000C0004AE755E40E9468057B018C0120E030E09E
:1000D00040E85FE30E94AA0488231CF461E070E01A
:1000E00024C0C801B70120E03FEF4FE757E40E946A
:1000F00064051816B4F4C601B50120E030E040E212
:1001000051E40E9468050E94AE0480E991E005C0B8
:10011000FC013197F1F76150704061157105C1F72D
:1001200007C0C801B7010E94AE04CB010197F1F7E7
:1001300012BA80E29EE40197F1F71F910F91FF90B0
:10014000EF90DF90CF90BF90AF900895AF92BF92A5
:10015000CF92DF92EF92FF920F931F9321B3206F04
:1001600021BB22B3206A22BBA0E0B0E0BC01CD01DC
:100170000E94DA045B016C0120E030E04AE755E4BC
:100180000E9468057B018C0120E030E040E85FE3DD
:100190000E94AA0488231CF461E070E024C0C80116
:1001A000B70120E03FEF4FE757E40E9464051816BF
:1001B000B4F4C601B50120E030E040E251E40E9411
:1001C00068050E94AE0480E991E005C0FC0131970A
:1001D000F1F76150704061157105C1F707C0C801A2
:1001E000B7010E94AE04CB010197F1F712BA80E289
:1001F0009EE40197F1F71F910F91FF90EF90DF9030
:10020000CF90BF90AF900895AF92BF92CF92DF9200
:10021000EF92FF920F931F9321B3206F21BB949A0B
:1002200022B32F7122BBA0E0B0E0BC01CD010E943F
:10023000DA045B016C0120E030E04AE755E40E94FB
:1002400068057B018C0120E030E040E85FE30E941C
:10025000AA0488231CF461E070E024C0C801B7013F
:1002600020E03FEF4FE757E40E9464051816B4F40E
:10027000C601B50120E030E040E251E40E9468058B
:100280000E94AE0480E991E005C0FC013197F1F7CE
:100290006150704061157105C1F707C0C801B70111
:1002A0000E94AE04CB010197F1F712BA80E29EE4FE
:1002B0000197F1F71F910F91FF90EF90DF90CF9092
:1002C000BF90AF900895AF92BF92CF92DF92EF921E
:1002D000FF920F931F9321B3206F21BB959A22B3F6
:1002E0002F7222BBA0E0B0E0BC01CD010E94DA0475
:1002F0005B016C0120E030E04AE755E40E946805AC
:100300007B018C0120E030E040E85FE30E94AA041A
:1003100088231CF461E070E024C0C801B70120E02C
:100320003FEF4FE757E40E9464051816B4F4C60186
:10033000B50120E030E040E251E40E9468050E94EF
:10034000AE0480E991E005C0FC013197F1F76150FE
:10035000704061157105C1F707C0C801B7010E945F
:10036000AE04CB010197F1F712BA80E29EE4019747
:10037000F1F71F910F91FF90EF90DF90CF90BF901A
:10038000AF900895AF92BF92CF92DF92EF92FF921B
:100390000F931F9321B3206F21BB969A22B32F7422
:1003A00022BBA0E0B0E0BC01CD010E94DA045B01F9
:1003B0006C0120E030E04AE755E40E9468057B01CB
:1003C0008C0120E030E040E85FE30E94AA0488232B
:1003D0001CF461E070E024C0C801B70120E03FEFE9
:1003E0004FE757E40E9464051816B4F4C601B5013E
:1003F00020E030E040E251E40E9468050E94AE0433
:1004000080E991E005C0FC013197F1F7615070403F
:1004100061157105C1F707C0C801B7010E94AE049C
:10042000CB010197F1F712BA80E29EE40197F1F750
:100430001F910F91FF90EF90DF90CF90BF90AF9002
:100440000895AF92BF92CF92DF92EF92FF920F93F7
:100450001F9321B3206F21BB979A22B32F7822BB21
:10046000A0E0B0E0BC01CD010E94DA045B016C01A8
:1004700020E030E04AE755E40E9468057B018C01EA
:1004800020E030E040E85FE30E94AA0488231CF4E7
:1004900061E070E024C0C801B70120E03FEF4FE702
:1004A00057E40E9464051816B4F4C601B50120E0B3
:1004B00030E040E251E40E9468050E94AE0480E909
:1004C00091E005C0FC013197F1F761507040611572
:1004D0007105C1F707C0C801B7010E94AE04CB0186
:1004E0000197F1F712BA80E29EE40197F1F71F91AC
:1004F0000F91FF90EF90DF90CF90BF90AF90089555
:1005000081B3806F81BB12BA089581B3806F81BBC4
:1005100082B3806982BB82B38F7982BB08952091B8
:100520007C0090E002C09F5F2AE09817E0F32093E0
:100530007C0090937D000895DA9A8AEF0E948F02E2
:10054000DA9808950F931F93082F8BB384708BBB99
:10055000802F807F8BBB0E949C0210E00F70107078
:1005600084E0000F111F8A95E1F70BBB0E949C02EB
:100570001F910F9108951F93182F81E08BBB8BB3B0
:1005800082708BBB812F807F81608BBB0E949C021D
:100590001295107F11601BBB0E949C021F91089551
:1005A000EF92FF921F93CF93DF937C0181E08BBB8F
:1005B0008BB382708BBB10E013C0103119F480EC48
:1005C0000E94A2028881807F81608BBB0E949C0276
:1005D00088818295807F81608BBB0E949C021F5F17
:1005E000E701C10FD11D8881882339F7DF91CF91B1
:1005F0001F91FF90EF90089580580E94A2020895E5
:1006000080540E94A2020895893021F40E94BB0206
:1006100089E006C08A3021F480E00E94000308953A
:100620000E94BB020895EF92FF920F931F93182F21
:1006300064E60E94F305482F282F30E08CE99FEFF5
:10064000289F7001299FF00C389FF00C1124C701DE
:10065000810F911D6AE070E00E94FF05062F842F34
:10066000805D0E940403802F805D0E940403105D62
:100670001E0D86EF9FEF089F002D1124802F810F04
:100680000E9404031F910F91FF90EF9008958091B5
:100690007E008BBB08950AC020E030E000002F5F91
:1006A0003F4F4CE02C3C3407C9F701970097A1F766
:1006B00008958BB380937E008FEF8ABB8FE090E02C
:1006C0000E944B038BB384708BBB80E28BBB81E0B9
:1006D0000E94A2028FE00E94A20282E00E94A20277
:1006E00080E80E94A2028FE090E00E944B030895F0
:1006F00010BC87E689B98AB188618AB980B58668F5
:1007000080BD089510BC89B98AB188618AB980B565
:10071000866880BD08955D9BFECF8CB908955F9B70
:10072000FECF8CB10895FC0104C05D9BFECF3196D5
:100730008CB980818823C9F708955F9BFECF8CB167
:100740008093830080E690E00E9493035F9BFECF3E
:100750008CB180937F00109280005D9BFECF8CB99E
:100760008DE690E00E9493035F9BFECF8CB1809357
:100770008100109282005D9BFECF8CB90895AF92EC
:10078000BF92CF92DF92EF92FF920F931F93A39AA3
:10079000AB9AA0E0B0E0BC01CD010E94DA045B019D
:1007A0006C0120E030E04AE755E40E9468057B01D7
:1007B0008C0120E030E040E85FE30E94AA04882337
:1007C0001CF461E070E024C0C801B70120E03FEFF5
:1007D0004FE757E40E9464051816B4F4C601B5014A
:1007E00020E030E040E251E40E9468050E94AE043F
:1007F00080E991E005C0FC013197F1F7615070404C
:1008000061157105C1F707C0C801B7010E94AE04A8
:10081000CB010197F1F7AB98C801B70120E030E0B8
:1008200040E85FE30E94AA0488231CF461E070E0C2
:1008300024C0C801B70120E03FEF4FE757E40E9412
:1008400064051816B4F4C601B50120E030E040E2BA
:1008500051E40E9468050E94AE0480E991E005C061
:10086000FC013197F1F76150704061157105C1F7D6
:1008700007C0C801B7010E94AE04CB010197F1F790
:100880001F910F91FF90EF90DF90CF90BF90AF90AE
:10089000089514BA0895C89B0CC0CF990AC0CE9B86
:1008A00008C0CA9906C0C99904C08AE090E00E94B5
:1008B000040181B3806F81BB12BA0895C89B0CC03C
:1008C000CF990AC0CE9B08C0CA9906C0C99904C076
:1008D0008AE090E00E94C20181B3806F81BB12BAAE
:1008E0000895E199FECF9FBB8EBB6DBBE29AE19A62
:1008F0000895E199FECF9FBB8EBBE09A8DB308951A
:100900008AB388738ABB8FEF84BB81B3806F81BB4E
:1009100010BC87E689B98AB188618AB980B58668D2
:1009200080BD0E949D0382E090E00E94BF03C899B1
:10093000F8CFCF9BF6CFCE9BF4CFCA9BF2CFC99B0B
:10094000F0CF84EF91E00E9449008AE090E00E949D
:10095000BF03E7CF6CD008F481E0089594D088F00D
:100960009F5790F0B92F9927B751A0F0D1F0660F9B
:10097000771F881F991F1AF0BA95C9F712C0B130B6
:1009800081F09BD0B1E0089598C0672F782F882719
:10099000B85F39F0B93FCCF3869577956795B395F5
:1009A000D9F73EF490958095709561957F4F8F4F64
:1009B0009F4F0895E89409C097FB3EF49095809569
:1009C000709561957F4F8F4F9F4F9923A9F0F92F15
:1009D00096E9BB279395F695879577956795B79593
:1009E000F111F8CFFAF4BB0F11F460FF1BC06F5F79
:1009F0007F4F8F4F9F4F16C0882311F096E911C08B
:100A0000772321F09EE8872F762F05C0662371F0AB
:100A100096E8862F70E060E02AF09A95660F771FBF
:100A2000881FDAF7880F9695879597F90895990F9B
:100A30000008550FAA0BE0E8FEEF16161706E807A8
:100A4000F907C0F012161306E407F50798F0621BC9
:100A5000730B840B950B39F40A2661F0232B242B9E
:100A6000252B21F408950A2609F4A140A6958FEFBD
:100A7000811D811D089557FD9058440F551F59F051
:100A80005F3F71F04795880F97FB991F61F09F3F7B
:100A900079F087950895121613061406551FF2CFA4
:100AA0004695F1DF08C0161617061806991FF1CFF4
:100AB00086957105610508940895E894BB2766271B
:100AC0007727CB0197F90895B2DF08F48FEF0895E7
:100AD0000BD078C069D028F06ED018F0952309F0BB
:100AE0005AC05FC01124EACFC6DFA0F3959FD1F3AF
:100AF000950F50E0551F629FF001729FBB27F00DCC
:100B0000B11D639FAA27F00DB11DAA1F649F662720
:100B1000B00DA11D661F829F2227B00DA11D621F6F
:100B2000739FB00DA11D621F839FA00D611D221F29
:100B3000749F3327A00D611D231F849F600D211D0D
:100B4000822F762F6A2F11249F5750408AF0E1F0B0
:100B500088234AF0EE0FFF1FBB1F661F771F881FF9
:100B600091505040A9F79E3F510570F014C0A6CF98
:100B70005F3FECF3983EDCF3869577956795B795E4
:100B8000F795E7959F5FC1F7FE2B880F911D96950E
:100B9000879597F9089597F99F6780E870E060E07E
:100BA00008959FEF80EC089500240A941616170606
:100BB00018060906089500240A941216130614064E
:100BC00005060895092E0394000C11F4882352F0B1
:100BD000BB0F40F4BF2B11F460FF04C06F5F7F4F69
:100BE0008F4F9F4F0895991B79E004C0991F961766
:100BF00008F0961B881F7A95C9F78095089597FB92
:100C0000092E07260AD077FD04D00CD006D000208C
:100C10001AF4709561957F4F0895F6F79095819538
:100C20009F4F0895AA1BBB1B51E107C0AA1FBB1F02
:100C3000A617B70710F0A61BB70B881F991F5A9568
:100C4000A9F780959095BC01CD010895F894FFCF48
:100C5000656E7465722078617869730D000A656E3F
:0C0C60007465722079617869730A0000E5
:00000001FF
