:100000000C942A000C943C000C943C000C943C0092
:100010000C943C000C943C000C943C000C943C0070
:100020000C943C000C943C000C943C000C943C0060
:100030000C943C000C943C000C943C000C943C0050
:100040000C943C000C943C000C943C000C943C0040
:100050000C943C0011241FBECFE5D4E0DEBFCDBF21
:1000600010E0A0E6B0E001C01D92A336B107E1F7B1
:100070000E9408040C9422060C940000AF92BF92D8
:10008000CF92DF92EF92FF920F931F9321B3206FD5
:1000900021BB20E522BBA0E0B0E0BC01CD010E9465
:1000A000D6045B016C0120E030E04AE755E40E9491
:1000B00064057B018C0120E030E040E85FE30E94B2
:1000C000A60488231CF461E070E024C0C801B701D5
:1000D00020E03FEF4FE757E40E9460051816B4F4A4
:1000E000C601B50120E030E040E251E40E94640521
:1000F0000E94AA0480E991E005C0FC013197F1F764
:100100006150704061157105C1F707C0C801B701A2
:100110000E94AA04CB010197F1F712BA80E29EE493
:100120000197F1F71F910F91FF90EF90DF90CF9023
:10013000BF90AF900895AF92BF92CF92DF92EF92AF
:10014000FF920F931F9321B3206F21BB22B3206A2C
:1001500022BBA0E0B0E0BC01CD010E94D6045B014F
:100160006C0120E030E04AE755E40E9464057B0121
:100170008C0120E030E040E85FE30E94A604882381
:100180001CF461E070E024C0C801B70120E03FEF3B
:100190004FE757E40E9460051816B4F4C601B50194
:1001A00020E030E040E251E40E9464050E94AA048D
:1001B00080E991E005C0FC013197F1F76150704092
:1001C00061157105C1F707C0C801B7010E94AA04F3
:1001D000CB010197F1F712BA80E29EE40197F1F7A3
:1001E0001F910F91FF90EF90DF90CF90BF90AF9055
:1001F0000895AF92BF92CF92DF92EF92FF920F934A
:100200001F9321B3206F21BB949A22B32F7122BB7D
:10021000A0E0B0E0BC01CD010E94D6045B016C01FE
:1002200020E030E04AE755E40E9464057B018C0140
:1002300020E030E040E85FE30E94A60488231CF43D
:1002400061E070E024C0C801B70120E03FEF4FE754
:1002500057E40E9460051816B4F4C601B50120E009
:1002600030E040E251E40E9464050E94AA0480E963
:1002700091E005C0FC013197F1F7615070406115C4
:100280007105C1F707C0C801B7010E94AA04CB01DC
:100290000197F1F712BA80E29EE40197F1F71F91FE
:1002A0000F91FF90EF90DF90CF90BF90AF900895A7
:1002B000AF92BF92CF92DF92EF92FF920F931F9374
:1002C00021B3206F21BB959A22B32F7222BBA0E0ED
:1002D000B0E0BC01CD010E94D6045B016C0120E0BE
:1002E00030E04AE755E40E9464057B018C0120E080
:1002F00030E040E85FE30E94A60488231CF461E03C
:1003000070E024C0C801B70120E03FEF4FE757E499
:100310000E9460051816B4F4C601B50120E030E073
:1003200040E251E40E9464050E94AA0480E991E041
:1003300005C0FC013197F1F76150704061157105FE
:10034000C1F707C0C801B7010E94AA04CB010197F9
:10035000F1F712BA80E29EE40197F1F71F910F9135
:10036000FF90EF90DF90CF90BF90AF900895AF9245
:10037000BF92CF92DF92EF92FF920F931F9321B320
:10038000206F21BB969A22B32F7422BBA0E0B0E06D
:10039000BC01CD010E94D6045B016C0120E030E07D
:1003A0004AE755E40E9464057B018C0120E030E0BF
:1003B00040E85FE30E94A60488231CF461E070E03B
:1003C00024C0C801B70120E03FEF4FE757E40E9487
:1003D00060051816B4F4C601B50120E030E040E233
:1003E00051E40E9464050E94AA0480E991E005C0DE
:1003F000FC013197F1F76150704061157105C1F74B
:1004000007C0C801B7010E94AA04CB010197F1F708
:1004100012BA80E29EE40197F1F71F910F91FF90CD
:10042000EF90DF90CF90BF90AF900895AF92BF92C2
:10043000CF92DF92EF92FF920F931F9321B3206F21
:1004400021BB979A22B32F7822BBA0E0B0E0BC0179
:10045000CD010E94D6045B016C0120E030E04AE748
:1004600055E40E9464057B018C0120E030E040E807
:100470005FE30E94A60488231CF461E070E024C0BE
:10048000C801B70120E03FEF4FE757E40E94600545
:100490001816B4F4C601B50120E030E040E251E4A2
:1004A0000E9464050E94AA0480E991E005C0FC0155
:1004B0003197F1F76150704061157105C1F707C0C0
:1004C000C801B7010E94AA04CB010197F1F712BA43
:1004D00080E29EE40197F1F71F910F91FF90EF905A
:1004E000DF90CF90BF90AF90089581B3806F81BBB4
:1004F00012BA089581B3806F81BB82B3806982BBD9
:1005000082B38F7982BB08952091600090E002C091
:100510009F5F2AE09817E0F32093600090936100BA
:100520000895DA9A8AEF0E948402DA9808950F9368
:100530001F93082F8BB384708BBB802F807F8BBB66
:100540000E94910210E00F70107084E0000F111FE4
:100550008A95E1F70BBB0E9491021F910F910895BC
:100560001F93182F81E08BBB8BB382708BBB812FC5
:10057000807F81608BBB0E9491021295107F116079
:100580001BBB0E9491021F910895EF92FF921F934F
:10059000CF93DF937C0181E08BBB8BB382708BBBED
:1005A00010E013C0103119F480EC0E94970288818A
:1005B000807F81608BBB0E94910288818295807FC1
:1005C00081608BBB0E9491021F5FE701C10FD11DAB
:1005D0008881882339F7DF91CF911F91FF90EF90A9
:1005E000089580580E949702089580540E949702AF
:1005F0000895893021F40E94B00289E006C08A3053
:1006000021F480E00E94F50208950E94B00208954E
:10061000EF92FF920F931F93182F64E60E94EF054D
:10062000482F282F30E08CE99FEF289F7001299FE9
:10063000F00C389FF00C1124C701810F911D6AE066
:1006400070E00E94FB05062F842F805D0E94F90256
:10065000802F805D0E94F902105D1E0D86EF9FEFD6
:10066000089F002D1124802F810F0E94F9021F91F5
:100670000F91FF90EF900895809162008BBB0895D9
:100680000AC020E030E000002F5F3F4F4CE02C3CE0
:100690003407C9F701970097A1F708958BB38093AA
:1006A00062008FEF8ABB8FE090E00E9440038BB323
:1006B00084708BBB80E28BBB81E00E9497028FE04D
:1006C0000E94970282E00E94970280E80E949702AF
:1006D0008FE090E00E9440030895AF92BF92CF92C6
:1006E000DF92EF92FF920F931F93A39AAB9AA0E031
:1006F000B0E0BC01CD010E94D6045B016C0120E09A
:1007000030E04AE755E40E9464057B018C0120E05B
:1007100030E040E85FE30E94A60488231CF461E017
:1007200070E024C0C801B70120E03FEF4FE757E475
:100730000E9460051816B4F4C601B50120E030E04F
:1007400040E251E40E9464050E94AA0480E991E01D
:1007500005C0FC013197F1F76150704061157105DA
:10076000C1F707C0C801B7010E94AA04CB010197D5
:10077000F1F7AB98C801B70120E030E040E85FE353
:100780000E94A60488231CF461E070E024C0C80124
:10079000B70120E03FEF4FE757E40E9460051816CD
:1007A000B4F4C601B50120E030E040E251E40E941B
:1007B00064050E94AA0480E991E005C0FC0131971C
:1007C000F1F76150704061157105C1F707C0C801AC
:1007D000B7010E94AA04CB010197F1F71F910F9175
:1007E000FF90EF90DF90CF90BF90AF90089514BA34
:1007F0000895E199FECF9FBB8EBB6DBBE29AE19A53
:100800000895E199FECF9FBB8EBBE09A8DB308950A
:10081000CF93DF938AB388738ABB87B3806587BB26
:100820008FEF84BB81B3806F81BB0E944E030E9417
:100830004E03C89B0CC0CF9B0AC0CE9908C0CA9B70
:1008400006C0C99B04C08AE090E00E943E0018BA2E
:1008500014BA81B3806F81BB12BAC89916C0CF9BFE
:1008600014C0CE9B12C0CA9B10C0C99B0EC08AE0A8
:1008700090E00E94F900C16080E090E0BE010E941B
:10088000F9038AE090E00E946D0318BA14BA81B3AC
:10089000806F81BB12BAC89B14C0CF9B12C0CE9B85
:1008A00010C0CA9B0EC0C99B0CC00E947A02C260D5
:1008B00080E090E0BE010E94F9038AE090E00E948F
:1008C0006D0318BA14BA81B3806F81BB12BAC89B8A
:1008D00017C0CF9B15C0CE9B13C0CA9B11C0C9992E
:1008E0000FC08AE090E00E94B701C46080E090E011
:1008F000BE010E94F903C49A8AE090E00E946D0351
:1009000018BA14BA81B3806F81BB12BAC89917C0E4
:10091000CF9B15C0CE9B13C0CA9B11C0C99B0FC0F3
:10092000C86080E090E0BE010E94F9038AE090E098
:100930000E94F900C69A8AE090E00E946D0318BAFE
:1009400014BA81B3806F81BB12BA71CF6CD008F436
:1009500081E0089594D088F09F5790F0B92F99279F
:10096000B751A0F0D1F0660F771F881F991F1AF0BA
:10097000BA95C9F712C0B13081F09BD0B1E00895AB
:1009800098C0672F782F8827B85F39F0B93FCCF32C
:10099000869577956795B395D9F73EF490958095B0
:1009A000709561957F4F8F4F9F4F0895E89409C0D0
:1009B00097FB3EF490958095709561957F4F8F4F92
:1009C0009F4F9923A9F0F92F96E9BB279395F695A8
:1009D000879577956795B795F111F8CFFAF4BB0F26
:1009E00011F460FF1BC06F5F7F4F8F4F9F4F16C08A
:1009F000882311F096E911C0772321F09EE8872F14
:100A0000762F05C0662371F096E8862F70E060E0CF
:100A10002AF09A95660F771F881FDAF7880F969548
:100A2000879597F90895990F0008550FAA0BE0E8EC
:100A3000FEEF16161706E807F907C0F012161306A0
:100A4000E407F50798F0621B730B840B950B39F4E0
:100A50000A2661F0232B242B252B21F408950A2646
:100A600009F4A140A6958FEF811D811D089557FDC2
:100A70009058440F551F59F05F3F71F04795880F0C
:100A800097FB991F61F09F3F79F0879508951216A3
:100A900013061406551FF2CF4695F1DF08C016164F
:100AA00017061806991FF1CF869571056105089400
:100AB0000895E894BB2766277727CB0197F9089517
:100AC000B2DF08F48FEF08950BD078C069D028F01A
:100AD0006ED018F0952309F05AC05FC01124EACFF8
:100AE000C6DFA0F3959FD1F3950F50E0551F629F8D
:100AF000F001729FBB27F00DB11D639FAA27F00D77
:100B0000B11DAA1F649F6627B00DA11D661F829F9D
:100B10002227B00DA11D621F739FB00DA11D621F82
:100B2000839FA00D611D221F749F3327A00D611D9F
:100B3000231F849F600D211D822F762F6A2F112481
:100B40009F5750408AF0E1F088234AF0EE0FFF1FD4
:100B5000BB1F661F771F881F91505040A9F79E3F0B
:100B6000510570F014C0A6CF5F3FECF3983EDCF364
:100B7000869577956795B795F795E7959F5FC1F748
:100B8000FE2B880F911D9695879597F9089597F9F3
:100B90009F6780E870E060E008959FEF80EC089523
:100BA00000240A941616170618060906089500244C
:100BB0000A9412161306140605060895092E0394C6
:100BC000000C11F4882352F0BB0F40F4BF2B11F43A
:100BD00060FF04C06F5F7F4F8F4F9F4F0895991B39
:100BE00079E004C0991F961708F0961B881F7A9524
:100BF000C9F78095089597FB092E07260AD077FD3F
:100C000004D00CD006D000201AF4709561957F4F67
:100C10000895F6F7909581959F4F0895AA1BBB1BE9
:100C200051E107C0AA1FBB1FA617B70710F0A61BEC
:100C3000B70B881F991F5A95A9F780959095BC010D
:080C4000CD010895F894FFCFE7
:00000001FF
