:100000000C942A000C943C000C943C000C943C0092
:100010000C943C000C943C000C943C000C943C0070
:100020000C943C000C943C000C943C000C943C0060
:100030000C943C000C943C000C943C000C943C0050
:100040000C943C000C943C000C943C000C943C0040
:100050000C943C0011241FBECFE5D4E0DEBFCDBF21
:1000600010E0A0E6B0E001C01D92A436B107E1F7B0
:100070000E9482040C9493060C940000AC01309111
:10008000600020E002C02F5F3AE0822F90E08417EA
:100090009507C8F33093600020936100089584E6CB
:1000A00090E00E943E00AA9A84E690E00E943E0002
:1000B000AA9808951F93182FAA9895B385B38270B4
:1000C0009870892B912F907F892B85BB0E944F00C0
:1000D00095B385B382709870892B1295107F812B10
:1000E00085BB0E944F001F9108951F93182F95B351
:1000F00085B382709870892B912F907F892B85BB57
:10010000A89A0E944F0095B385B382709870892B8E
:100110001295107F812B85BBA89A0E944F001F91DA
:100120000895EF92FF921F93CF93DF937C01AA98DB
:1001300010E01FC0103119F480EC0E945A0085B302
:1001400095B392708870982B8881807F982B95BB8F
:10015000A89A0E944F0085B395B392708870982B2F
:1001600088818295807F892B85BBA89A0E944F0049
:100170001F5FE701C10FD11D88818823D9F6DF9168
:10018000CF911F91FF90EF90089580580E945A00E0
:10019000089580540E945A000895893029F480E21D
:1001A0000E94750080E206C08A3021F480E00E943F
:1001B000C90008950E9475000895EF92FF920F9371
:1001C0001F93182F64E60E946006482F282F30E006
:1001D0008CE99FEF289F7001299FF00C389FF00C4D
:1001E0001124C701810F911D6AE070E00E946C0626
:1001F000062F842F805D0E94CD00802F805D0E949D
:10020000CD00105D1E0D86EF9FEF089F002D11247D
:10021000802F810F0E94CD001F910F91FF90EF90D2
:1002200008950AC020E030E000002F5F3F4F4CE00F
:100230002C3C3407C9F701970097A1F708958FEF79
:1002400084BB8FE090E00E94110183E00E945A007D
:100250008DE290E00E94110182E00E945A008FE03E
:1002600090E00E941101AA9881E00E945A008FE05C
:100270000E945A0082E00E945A0080E80E945A00C0
:100280008FE090E00E9411010895AF92BF92CF924B
:10029000DF92EF92FF920F931F9321B3206F21BB48
:1002A00022B3206522BBA0E0B0E0BC01CD010E94DA
:1002B00047055B016C0120E030E04AE755E40E940D
:1002C000FD057B018C0120E030E040E85FE30E9407
:1002D000AF0488231CF461E070E024C0C801B701BA
:1002E00020E03FEF4FE757E40E94F9051816B4F4F9
:1002F000C601B50120E030E040E251E40E94FD0576
:100300000E941B0580E991E005C0FC013197F1F7DF
:100310006150704061157105C1F707C0C801B70190
:100320000E941B05CB010197F1F782B38F7A82BB44
:1003300080E29EE40197F1F71F910F91FF90EF90FB
:10034000DF90CF90BF90AF900895AF92BF92CF92C1
:10035000DF92EF92FF920F931F9321B3206F21BB87
:1003600022B3206A22BBA0E0B0E0BC01CD010E9414
:1003700047055B016C0120E030E04AE755E40E944C
:10038000FD057B018C0120E030E040E85FE30E9446
:10039000AF0488231CF461E070E024C0C801B701F9
:1003A00020E03FEF4FE757E40E94F9051816B4F438
:1003B000C601B50120E030E040E251E40E94FD05B5
:1003C0000E941B0580E991E005C0FC013197F1F71F
:1003D0006150704061157105C1F707C0C801B701D0
:1003E0000E941B05CB010197F1F712BA80E29EE44F
:1003F0000197F1F71F910F91FF90EF90DF90CF9051
:10040000BF90AF900895AF92BF92CF92DF92EF92DC
:10041000FF920F931F9321B3206F21BB949A22B3B5
:100420002F7122BBA0E0B0E0BC01CD010E944705C6
:100430005B016C0120E030E04AE755E40E94FD05D5
:100440007B018C0120E030E040E85FE30E94AF04D4
:1004500088231CF461E070E024C0C801B70120E0EB
:100460003FEF4FE757E40E94F9051816B4F4C601B0
:10047000B50120E030E040E251E40E94FD050E9419
:100480001B0580E991E005C0FC013197F1F761504F
:10049000704061157105C1F707C0C801B7010E941E
:1004A0001B05CB010197F1F712BA80E29EE4019798
:1004B000F1F71F910F91FF90EF90DF90CF90BF90D9
:1004C000AF900895AF92BF92CF92DF92EF92FF92DA
:1004D0000F931F9321B3206F21BB959A22B32F72E4
:1004E00022BBA0E0B0E0BC01CD010E9447055B014A
:1004F0006C0120E030E04AE755E40E94FD057B01F5
:100500008C0120E030E040E85FE30E94AF048823E4
:100510001CF461E070E024C0C801B70120E03FEFA7
:100520004FE757E40E94F9051816B4F4C601B50167
:1005300020E030E040E251E40E94FD050E941B05EE
:1005400080E991E005C0FC013197F1F761507040FE
:1005500061157105C1F707C0C801B7010E941B05ED
:10056000CB010197F1F712BA80E29EE40197F1F70F
:100570001F910F91FF90EF90DF90CF90BF90AF90C1
:100580000895AF92BF92CF92DF92EF92FF920F93B6
:100590001F9321B3206F21BB969A22B32F7422BBE5
:1005A000A0E0B0E0BC01CD010E9447055B016C01F9
:1005B00020E030E04AE755E40E94FD057B018C0114
:1005C00020E030E040E85FE30E94AF0488231CF4A1
:1005D00061E070E024C0C801B70120E03FEF4FE7C1
:1005E00057E40E94F9051816B4F4C601B50120E0DD
:1005F00030E040E251E40E94FD050E941B0580E9C5
:1006000091E005C0FC013197F1F761507040611530
:100610007105C1F707C0C801B7010E941B05CB01D6
:100620000197F1F712BA80E29EE40197F1F71F916A
:100630000F91FF90EF90DF90CF90BF90AF90089513
:10064000AF92BF92CF92DF92EF92FF920F931F93E0
:1006500021B3206F21BB979A22B32F7822BBA0E051
:10066000B0E0BC01CD010E9447055B016C0120E0B8
:1006700030E04AE755E40E94FD057B018C0120E053
:1006800030E040E85FE30E94AF0488231CF461E09F
:1006900070E024C0C801B70120E03FEF4FE757E406
:1006A0000E94F9051816B4F4C601B50120E030E047
:1006B00040E251E40E94FD050E941B0580E991E0A3
:1006C00005C0FC013197F1F761507040611571056B
:1006D000C1F707C0C801B7010E941B05CB010197F4
:1006E000F1F712BA80E29EE40197F1F71F910F91A2
:1006F000FF90EF90DF90CF90BF90AF90089581B3BF
:10070000806F81BB12BA089581E090E00E940302DD
:10071000CF9906C0CA9904C081B3806F81BB12BA59
:100720000895C89B0CC0CF990AC0CE9B08C0CA9937
:1007300006C0C99904C082E390E00E94C10281B35F
:10074000806F81BB12BA089581B3806F81BB82B381
:10075000806982BB82B38F7982BB089510BC89E126
:1007600089B98AB188698AB980B5866880BD0895DB
:1007700010BC89B98AB188698AB980B5866880BD9C
:1007800008955D9BFECF8CB9089580E090E00E94B3
:10079000C10380E197E220E931E0F9013197F1F7F7
:1007A0000197D9F780E090E00E94C10380E197E2D1
:1007B00020E931E0F9013197F1F70197D9F780E0AD
:1007C00090E00E94C10380E197E220E931E0F90165
:1007D0003197F1F70197D9F708955F9BFECF8CB160
:1007E0000895FC0104C05D9BFECF31968CB98081D9
:1007F0008823C9F70895AF92BF92CF92DF92EF920C
:10080000FF920F931F93C49AA0E0B0E0BC01CD010A
:100810000E9447055B016C012BEA3AEA4AEA50E480
:100820000E94FD057B018C0120E030E040E85FE3A1
:100830000E94AF04882314F461E054C0C801B701DA
:1008400020E030E04FE753E40E94F90518160CF061
:1008500045C0C601B50120E030E04AE754E40E94FB
:10086000B3045B016C0120E030E04AE755E40E94EC
:10087000FD057B018C0120E030E040E85FE30E9451
:10088000AF0488231CF461E070E024C0C801B70104
:1008900020E03FEF4FE757E40E94F9051816B4F443
:1008A000C601B50120E030E040E251E40E94FD05C0
:1008B0000E941B0580E991E005C0FC013197F1F72A
:1008C0006150704061157105C1F70EC0C801B701D4
:1008D0000E941B05CB010197F1F706C0C801B701C3
:1008E0000E941B056A95F1F7C49880E49CE9019782
:1008F000F1F71F910F91FF90EF90DF90CF90BF9095
:10090000AF9008951F93BC9A0E94AE0388EE93E0C7
:1009100020E931E0F9013197F1F70197D9F70E9409
:100920001F01A99A0E94C5035F9BFECF1CB1812FB6
:100930000E94CD00113629F484E690E00E94450122
:10094000F3CF123629F484E690E00E94A501ECCFA3
:10095000133651F784E690E00E94FB03E5CFD4D034
:1009600008F481E008950CD00AC102D140F0F9D01A
:1009700030F021F45F3F19F0EBC0511134C1EEC0EB
:100980000FD198F39923C9F35523B1F3951B550B58
:10099000BB27AA2762177307840738F09F5F5F4F52
:1009A000220F331F441FAA1FA9F333D00E2E3AF093
:1009B000E0E830D091505040E695001CCAF729D0AD
:1009C000FE2F27D0660F771F881FBB1F26173707FC
:1009D0004807AB07B0E809F0BB0B802DBF01FF272C
:1009E00093585F4F2AF09E3F510568F0B1C0FBC09D
:1009F0005F3FECF3983EDCF3869577956795B79566
:100A0000F7959F5FC9F7880F911D9695879597F980
:100A10000895E1E0660F771F881FBB1F62177307F9
:100A20008407BA0720F0621B730B840BBA0BEE1F0E
:100A300088F7E0950895BCD088F09F5790F0B92FC3
:100A40009927B751A0F0D1F0660F771F881F991F23
:100A50001AF0BA95C9F712C0B13081F0C3D0B1E035
:100A60000895C0C0672F782F8827B85F39F0B93F45
:100A7000CCF3869577956795B395D9F73EF4909525
:100A80008095709561957F4F8F4F9F4F0895E894A3
:100A900009C097FB3EF490958095709561957F4FC6
:100AA0008F4F9F4F9923A9F0F92F96E9BB27939574
:100AB000F695879577956795B795F111F8CFFAF484
:100AC000BB0F11F460FF1BC06F5F7F4F8F4F9F4FB5
:100AD00016C0882311F096E911C0772321F09EE813
:100AE000872F762F05C0662371F096E8862F70E079
:100AF00060E02AF09A95660F771F881FDAF7880F53
:100B00009695879597F90895990F0008550FAA0BA8
:100B1000E0E8FEEF16161706E807F907C0F0121610
:100B20001306E407F50798F0621B730B840B950B13
:100B300039F40A2661F0232B242B252B21F4089568
:100B40000A2609F4A140A6958FEF811D811D089505
:100B500097F99F6780E870E060E008959FEF80EC70
:100B6000089500240A941616170618060906089513
:100B700000240A9412161306140605060895092E79
:100B80000394000C11F4882352F0BB0F40F4BF2BE8
:100B900011F460FF04C06F5F7F4F8F4F9F4F089528
:100BA00057FD9058440F551F59F05F3F71F047951E
:100BB000880F97FB991F61F09F3F79F08795089503
:100BC000121613061406551FF2CF4695F1DF08C022
:100BD000161617061806991FF1CF8695710561053F
:100BE00008940895E894BB2766277727CB0197F9E7
:100BF00008958ADF08F48FEF08950BD0C0CFB1DFDE
:100C000028F0B6DF18F0952309F0A2CFA7CF112462
:100C1000EACFC6DFA0F3959FD1F3950F50E0551FA3
:100C2000629FF001729FBB27F00DB11D639FAA2741
:100C3000F00DB11DAA1F649F6627B00DA11D661F90
:100C4000829F2227B00DA11D621F739FB00DA11DB1
:100C5000621F839FA00D611D221F749F3327A00D6B
:100C6000611D231F849F600D211D822F762F6A2F07
:100C700011249F5750408AF0E1F088234AF0EE0F8C
:100C8000FF1FBB1F661F771F881F91505040A9F799
:100C90009E3F510570F05CCFA6CF5F3FECF3983ECE
:100CA000DCF3869577956795B795F795E7959F5F00
:100CB000C1F7FE2B880F911D9695879597F908959A
:100CC000991B79E004C0991F961708F0961B881F9E
:100CD0007A95C9F78095089597FB092E07260AD0C3
:100CE00077FD04D00CD006D000201AF470956195E1
:100CF0007F4F0895F6F7909581959F4F0895AA1B11
:100D0000BB1B51E107C0AA1FBB1FA617B70710F0F6
:100D1000A61BB70B881F991F5A95A9F78095909528
:0A0D2000BC01CD010895F894FFCF47
:00000001FF
