:100000000C942A000C9447000C9447000C94470071
:100010000C9447000C9447000C9447000C94470044
:100020000C9447000C9447000C9447000C94CA04AD
:100030000C9447000C9447000C9447000C94470024
:100040000C9447000C9447000C9447000C94470014
:100050000C94470011241FBECFE5D4E0DEBFCDBF16
:1000600010E0A0E6B0E0E4ECFDE002C005900D92E7
:10007000AE38B107D9F710E0AEE8B0E001C01D928C
:10008000A739B107E1F70E942E050C94E0060C9405
:100090000000AF92BF92CF92DF92EF92FF920F9348
:1000A0001F9321B3206F21BB22B3206522BBA0E0A8
:1000B000B0E0BC01CD010E9494055B016C0120E021
:1000C00030E04AE755E40E9422067B018C0120E0E3
:1000D00030E040E85FE30E94640588231CF461E09F
:1000E00070E024C0C801B70120E03FEF4FE757E4BC
:1000F0000E941E061816B4F4C601B50120E030E0D7
:1001000040E251E40E9422060E94680580E991E0E5
:1001100005C0FC013197F1F7615070406115710520
:10012000C1F707C0C801B7010E946805CB0101975C
:10013000F1F782B38F7A82BB80E29EE40197F1F7F8
:100140001F910F91FF90EF90DF90CF90BF90AF90F5
:100150000895AF92BF92CF92DF92EF92FF920F93EA
:100160001F9321B3206F21BB22B3206A22BBA0E0E2
:10017000B0E0BC01CD010E9494055B016C0120E060
:1001800030E04AE755E40E9422067B018C0120E022
:1001900030E040E85FE30E94640588231CF461E0DE
:1001A00070E024C0C801B70120E03FEF4FE757E4FB
:1001B0000E941E061816B4F4C601B50120E030E016
:1001C00040E251E40E9422060E94680580E991E025
:1001D00005C0FC013197F1F7615070406115710560
:1001E000C1F707C0C801B7010E946805CB0101979C
:1001F000F1F712BA80E29EE40197F1F71F910F9197
:10020000FF90EF90DF90CF90BF90AF900895AF92A6
:10021000BF92CF92DF92EF92FF920F931F9321B381
:10022000206F21BB949A22B32F7122BBA0E0B0E0D3
:10023000BC01CD010E9494055B016C0120E030E01F
:100240004AE755E40E9422067B018C0120E030E061
:1002500040E85FE30E94640588231CF461E070E0DD
:1002600024C0C801B70120E03FEF4FE757E40E94E8
:100270001E061816B4F4C601B50120E030E040E2D5
:1002800051E40E9422060E94680580E991E005C0C1
:10029000FC013197F1F76150704061157105C1F7AC
:1002A00007C0C801B7010E946805CB010197F1F7AB
:1002B00012BA80E29EE40197F1F71F910F91FF902F
:1002C000EF90DF90CF90BF90AF900895AF92BF9224
:1002D000CF92DF92EF92FF920F931F9321B3206F83
:1002E00021BB959A22B32F7222BBA0E0B0E0BC01E3
:1002F000CD010E9494055B016C0120E030E04AE7EB
:1003000055E40E9422067B018C0120E030E040E8A9
:100310005FE30E94640588231CF461E070E024C060
:10032000C801B70120E03FEF4FE757E40E941E06E7
:100330001816B4F4C601B50120E030E040E251E403
:100340000E9422060E94680580E991E005C0FC0138
:100350003197F1F76150704061157105C1F707C021
:10036000C801B7010E946805CB010197F1F712BAE5
:1003700080E29EE40197F1F71F910F91FF90EF90BB
:10038000DF90CF90BF90AF900895AF92BF92CF9281
:10039000DF92EF92FF920F931F9321B3206F21BB47
:1003A000969A22B32F7422BBA0E0B0E0BC01CD012D
:1003B0000E9494055B016C0120E030E04AE755E4BF
:1003C0000E9422067B018C0120E030E040E85FE3E0
:1003D0000E94640588231CF461E070E024C0C80119
:1003E000B70120E03FEF4FE757E40E941E061816C2
:1003F000B4F4C601B50120E030E040E251E40E94CF
:1004000022060E94680580E991E005C0FC01319751
:10041000F1F76150704061157105C1F707C0C8015F
:10042000B7010E946805CB010197F1F712BA80E28B
:100430009EE40197F1F71F910F91FF90EF90DF90ED
:10044000CF90BF90AF900895AF92BF92CF92DF92BE
:10045000EF92FF920F931F9321B3206F21BB979AC6
:1004600022B32F7822BBA0E0B0E0BC01CD010E94F6
:1004700094055B016C0120E030E04AE755E40E94FE
:1004800022067B018C0120E030E040E85FE30E941F
:10049000640588231CF461E070E024C0C801B70142
:1004A00020E03FEF4FE757E40E941E061816B4F411
:1004B000C601B50120E030E040E251E40E9422068E
:1004C0000E94680580E991E005C0FC013197F1F7D1
:1004D0006150704061157105C1F707C0C801B701CF
:1004E0000E946805CB010197F1F712BA80E29EE401
:1004F0000197F1F71F910F91FF90EF90DF90CF9050
:10050000BF90AF90089581B3806F81BB12BA0895F8
:1005100081E090E00E940701CF9906C0CA9904C00B
:1005200081B3806F81BB12BA0895C89B0CC0CF996C
:100530000AC0CE9B08C0CA9906C0C99904C082E30C
:1005400090E00E94C50181B3806F81BB12BA08950B
:1005500081B3806F81BB82B3806982BB82B38F79A4
:1005600082BB0895AC0130918E0020E002C02F5F65
:100570003AE0822F90E084179507C8F330938E00FD
:1005800020938F00089584E690E00E94B202AA9A18
:1005900084E690E00E94B202AA9808951F93182F53
:1005A000AA9895B385B382709870892B912F907F0C
:1005B000892B85BB0E94C30295B385B38270987066
:1005C000892B1295107F812B85BB0E94C3021F913E
:1005D00008951F93182F95B385B382709870892B57
:1005E000912F907F892B85BBA89A0E94C30295B357
:1005F00085B382709870892B1295107F812B85BBF3
:10060000A89A0E94C3021F910895EF92FF921F9330
:10061000CF93DF937C01AA9810E01FC0103119F42A
:1006200080EC0E94CE0285B395B392708870982BAF
:100630008881807F982B95BBA89A0E94C30285B3BE
:1006400095B392708870982B88818295807F892BD2
:1006500085BBA89A0E94C3021F5FE701C10FD11D8D
:1006600088818823D9F6DF91CF911F91FF90EF9079
:10067000089580580E94CE02089580540E94CE02B0
:100680000895893029F480E20E94E90280E206C0E0
:100690008A3021F480E00E943D0308950E94E9021F
:1006A0000895EF92FF920F931F93182F64E60E9414
:1006B000AD06482F282F30E08CE99FEF289F70016E
:1006C000299FF00C389FF00C1124C701810F911D58
:1006D0006AE070E00E94B906062F842F805D0E94B8
:1006E0004103802F805D0E944103105D1E0D86EF47
:1006F0009FEF089F002D1124802F810F0E9441033E
:100700001F910F91FF90EF9008950AC020E030E014
:1007100000002F5F3F4F4CE02C3C3407C9F7019796
:100720000097A1F708958FEF84BB8FE090E00E94BF
:10073000850383E00E94CE028DE290E00E94850353
:1007400082E00E94CE028FE090E00E948503AA988A
:1007500081E00E94CE028FE00E94CE0282E00E94E1
:10076000CE0280E80E94CE028FE090E00E948503D6
:100770000895AF92BF92CF92DF92EF92FF920F93C4
:100780001F93A39AAB9AA0E0B0E0BC01CD010E94F8
:1007900094055B016C0120E030E04AE755E40E94DB
:1007A00022067B018C0120E030E040E85FE30E94FC
:1007B000640588231CF461E070E024C0C801B7011F
:1007C00020E03FEF4FE757E40E941E061816B4F4EE
:1007D000C601B50120E030E040E251E40E9422066B
:1007E0000E94680580E991E005C0FC013197F1F7AE
:1007F0006150704061157105C1F707C0C801B701AC
:100800000E946805CB010197F1F7AB98C801B701C9
:1008100020E030E040E85FE30E94640588231CF498
:1008200061E070E024C0C801B70120E03FEF4FE76E
:1008300057E40E941E061816B4F4C601B50120E064
:1008400030E040E251E40E9422060E94680580E9FF
:1008500091E005C0FC013197F1F7615070406115DE
:100860007105C1F707C0C801B7010E946805CB0137
:100870000197F1F71F910F91FF90EF90DF90CF90CC
:10088000BF90AF90089515BA0895E199FECF9FBB30
:100890008EBB6DBBE29AE19A0895E199FECF9FBBB2
:1008A0008EBBE09A8DB3089510BC89E189B98AB1F5
:1008B00088698AB980B5866880BD089510BC89B9F9
:1008C0008AB188698AB980B5866880BD08955D9BC4
:1008D000FECF8CB9089580E090E00E94670480EA22
:1008E0009FE020E931E0F9013197F1F70197D9F75D
:1008F00080E090E00E94670480EA9FE020E931E018
:10090000F9013197F1F70197D9F780E090E00E9463
:10091000670480EA9FE020E931E0F9013197F1F7BF
:100920000197D9F708955F9BFECF8CB10895FC0124
:1009300004C05D9BFECF31968CB980818823C9F7B6
:1009400008955F9BFECF8CB1809396008136E9F4C9
:1009500080E690E00E9497045F9BFECF8CB180936D
:100960009200109293005D9BFECF8CB98DE690E0D3
:100970000E9497045F9BFECF8CB1809394001092ED
:1009800095005D9BFECF8CB908958BE790E00E94A7
:10099000970408951F920F920FB60F9211240F9390
:1009A0001F932F933F934F935F936F937F938F93F7
:1009B0009F93AF93BF93EF93FF938CB180938D0080
:1009C00080918D008CB900E21EE4C8010197F1F717
:1009D00080918D000E944103C8010197F1F7FF91BA
:1009E000EF91BF91AF919F918F917F916F915F91A7
:1009F0004F913F912F911F910F910F900FBE0F902C
:100A00001F901895CF9B06C0CA9B04C084E690E057
:100A10000E944900CA9906C0CF9B04C084E690E0BA
:100A20000E94C501CA9B06C0CF9904C084E690E02D
:100A30000E940701CA9B11C0CF9B0FC0CE9B0DC067
:100A400081B3806F81BB12BA809190009091910028
:100A50000196909391008093900008951F938AB31C
:100A600088738ABB87B3806587BB8FEF84BB81B3F4
:100A7000826F81BB81B3837F81BBBD980E9493034A
:100A80000E94540480EA9FE020E931E0F9013197A7
:100A9000F1F70197D9F70E946B0488E890E00E9473
:100AA0009704A99A8A98929A789411E6829B03C037
:100AB0005D9BFECF1CB980918D008136B9F781E036
:100AC00090E00E94B903F2CF6CD008F481E0089561
:100AD00094D088F09F5790F0B92F9927B751A0F084
:100AE000D1F0660F771F881F991F1AF0BA95C9F7C2
:100AF00012C0B13081F09BD0B1E0089598C0672F4B
:100B0000782F8827B85F39F0B93FCCF38695779571
:100B10006795B395D9F73EF490958095709561955A
:100B20007F4F8F4F9F4F0895E89409C097FB3EF485
:100B300090958095709561957F4F8F4F9F4F99232A
:100B4000A9F0F92F96E9BB279395F69587957795A8
:100B50006795B795F111F8CFFAF4BB0F11F460FF68
:100B60001BC06F5F7F4F8F4F9F4F16C0882311F0C0
:100B700096E911C0772321F09EE8872F762F05C0D4
:100B8000662371F096E8862F70E060E02AF09A956F
:100B9000660F771F881FDAF7880F9695879597F964
:100BA0000895990F0008550FAA0BE0E8FEEF1616FE
:100BB0001706E807F907C0F012161306E407F50751
:100BC00098F0621B730B840B950B39F40A2661F0C5
:100BD000232B242B252B21F408950A2609F4A14068
:100BE000A6958FEF811D811D089557FD9058440FE4
:100BF000551F59F05F3F71F04795880F97FB991F7C
:100C000061F09F3F79F08795089512161306140638
:100C1000551FF2CF4695F1DF08C0161617061806C5
:100C2000991FF1CF86957105610508940895E894A0
:100C3000BB2766277727CB0197F90895B2DF08F421
:100C40008FEF08950BD078C069D028F06ED018F0DF
:100C5000952309F05AC05FC01124EACFC6DFA0F384
:100C6000959FD1F3950F50E0551F629FF001729F41
:100C7000BB27F00DB11D639FAA27F00DB11DAA1F60
:100C8000649F6627B00DA11D661F829F2227B00DAD
:100C9000A11D621F739FB00DA11D621F839FA00D38
:100CA000611D221F749F3327A00D611D231F849F88
:100CB000600D211D822F762F6A2F11249F575040DF
:100CC0008AF0E1F088234AF0EE0FFF1FBB1F661F7A
:100CD000771F881F91505040A9F79E3F510570F033
:100CE00014C0A6CF5F3FECF3983EDCF38695779572
:100CF0006795B795F795E7959F5FC1F7FE2B880F2E
:100D0000911D9695879597F9089597F99F6780E8C3
:100D100070E060E008959FEF80EC089500240A944D
:100D20001616170618060906089500240A941216C6
:100D30001306140605060895092E0394000C11F4F9
:100D4000882352F0BB0F40F4BF2B11F460FF04C0A6
:100D50006F5F7F4F8F4F9F4F0895991B79E004C0BD
:100D6000991F961708F0961B881F7A95C9F78095EA
:100D7000089597FB092E07260AD077FD04D00CD0E2
:100D800006D000201AF4709561957F4F0895F6F70C
:100D9000909581959F4F0895AA1BBB1B51E107C0F9
:100DA000AA1FBB1FA617B70710F0A61BB70B881FFB
:100DB000991F5A95A9F780959095BC01CD0108958A
:040DC000F894FFCFD5
:100DC400656E7465722078617869730D000A656ECA
:100DD4007465722079617869730A00656E7465724E
:0E0DE40020636F6465730A00546573740030F9
:00000001FF
