:100000000C942A000C943C000C943C000C943C0092
:100010000C943C000C943C000C943C000C943C0070
:100020000C943C000C943C000C943C000C943C0060
:100030000C943C000C943C000C943C000C943C0050
:100040000C943C000C943C000C943C000C943C0040
:100050000C943C0011241FBECFE5D4E0DEBFCDBF21
:1000600010E0A0E6B0E001C01D92A136B107E1F7B3
:100070000E9438030C94A9040C940000AF92BF9224
:10008000CF92DF92EF92FF920F931F9321B3206FD5
:1000900021BB22B3206522BBA0E0B0E0BC01CD01B2
:1000A0000E9490035B016C0120E030E04AE755E4D8
:1000B0000E941E047B018C0120E030E040E85FE3F9
:1000C0000E94600388231CF461E070E024C0C80132
:1000D000B70120E03FEF4FE757E40E941A041816DB
:1000E000B4F4C601B50120E030E040E251E40E94E2
:1000F0001E040E94640380E991E005C0FC01319771
:10010000F1F76150704061157105C1F707C0C80172
:10011000B7010E946403CB010197F1F782B38F7A94
:1001200082BB80E29EE40197F1F71F910F91FF904F
:10013000EF90DF90CF90BF90AF900895AF92BF92B5
:10014000CF92DF92EF92FF920F931F9321B3206F14
:1001500021BB22B3206A22BBA0E0B0E0BC01CD01EC
:100160000E9490035B016C0120E030E04AE755E417
:100170000E941E047B018C0120E030E040E85FE338
:100180000E94600388231CF461E070E024C0C80171
:10019000B70120E03FEF4FE757E40E941A0418161A
:1001A000B4F4C601B50120E030E040E251E40E9421
:1001B0001E040E94640380E991E005C0FC013197B0
:1001C000F1F76150704061157105C1F707C0C801B2
:1001D000B7010E946403CB010197F1F712BA80E2E4
:1001E0009EE40197F1F71F910F91FF90EF90DF9040
:1001F000CF90BF90AF900895AF92BF92CF92DF9211
:10020000EF92FF920F931F9321B3206F21BB949A1B
:1002100022B32F7122BBA0E0B0E0BC01CD010E944F
:1002200090035B016C0120E030E04AE755E40E9456
:100230001E047B018C0120E030E040E85FE30E9477
:10024000600388231CF461E070E024C0C801B7019A
:1002500020E03FEF4FE757E40E941A041816B4F469
:10026000C601B50120E030E040E251E40E941E04E6
:100270000E94640380E991E005C0FC013197F1F729
:100280006150704061157105C1F707C0C801B70121
:100290000E946403CB010197F1F712BA80E29EE459
:1002A0000197F1F71F910F91FF90EF90DF90CF90A2
:1002B000BF90AF900895AF92BF92CF92DF92EF922E
:1002C000FF920F931F9321B3206F21BB959A22B306
:1002D0002F7222BBA0E0B0E0BC01CD010E949003D0
:1002E0005B016C0120E030E04AE755E40E941E0407
:1002F0007B018C0120E030E040E85FE30E94600376
:1003000088231CF461E070E024C0C801B70120E03C
:100310003FEF4FE757E40E941A041816B4F4C601E1
:10032000B50120E030E040E251E40E941E040E944A
:10033000640380E991E005C0FC013197F1F7615059
:10034000704061157105C1F707C0C801B7010E946F
:100350006403CB010197F1F712BA80E29EE40197A2
:10036000F1F71F910F91FF90EF90DF90CF90BF902A
:10037000AF900895AF92BF92CF92DF92EF92FF922B
:100380000F931F9321B3206F21BB969A22B32F7432
:1003900022BBA0E0B0E0BC01CD010E9490035B0154
:1003A0006C0120E030E04AE755E40E941E047B0126
:1003B0008C0120E030E040E85FE30E946003882386
:1003C0001CF461E070E024C0C801B70120E03FEFF9
:1003D0004FE757E40E941A041816B4F4C601B50199
:1003E00020E030E040E251E40E941E040E946403D9
:1003F00080E991E005C0FC013197F1F76150704050
:1004000061157105C1F707C0C801B7010E946403F7
:10041000CB010197F1F712BA80E29EE40197F1F760
:100420001F910F91FF90EF90DF90CF90BF90AF9012
:100430000895AF92BF92CF92DF92EF92FF920F9307
:100440001F9321B3206F21BB979A22B32F7822BB31
:10045000A0E0B0E0BC01CD010E9490035B016C0103
:1004600020E030E04AE755E40E941E047B018C0145
:1004700020E030E040E85FE30E94600388231CF442
:1004800061E070E024C0C801B70120E03FEF4FE712
:1004900057E40E941A041816B4F4C601B50120E00E
:1004A00030E040E251E40E941E040E94640380E9AF
:1004B00091E005C0FC013197F1F761507040611582
:1004C0007105C1F707C0C801B7010E946403CB01E1
:1004D0000197F1F712BA80E29EE40197F1F71F91BC
:1004E0000F91FF90EF90DF90CF90BF90AF90089565
:1004F00081B3806F81BB12BA089581B3806F81BBD5
:1005000082B3806982BB82B38F7982BB089510BCAD
:1005100087E689B98AB188618AB980B5866880BD65
:10052000089510BC89B98AB188618AB980B5866896
:1005300080BD08955D9BFECF8CB90895AF92BF92A8
:10054000CF92DF92EF92FF920F931F93A39AAB9AF1
:10055000A0E0B0E0BC01CD010E9490035B016C0102
:1005600020E030E04AE755E40E941E047B018C0144
:1005700020E030E040E85FE30E94600388231CF441
:1005800061E070E024C0C801B70120E03FEF4FE711
:1005900057E40E941A041816B4F4C601B50120E00D
:1005A00030E040E251E40E941E040E94640380E9AE
:1005B00091E005C0FC013197F1F761507040611581
:1005C0007105C1F707C0C801B7010E946403CB01E0
:1005D0000197F1F7AB98C801B70120E030E040E89F
:1005E0005FE30E94600388231CF461E070E024C094
:1005F000C801B70120E03FEF4FE757E40E941A041B
:100600001816B4F4C601B50120E030E040E251E430
:100610000E941E040E94640380E991E005C0FC0171
:100620003197F1F76150704061157105C1F707C04E
:10063000C801B7010E946403CB010197F1F71F9134
:100640000F91FF90EF90DF90CF90BF90AF90089503
:1006500014BA08955F9BFECF8CB10895FC0104C0CD
:100660005D9BFECF31968CB980818823C9F70895B0
:100670000E9487025F9BFECF8CB15D9BFECF8CB941
:10068000873729F484EF91E00E943E0014C0813640
:1006900029F484EF91E00E94BA010DC0843629F458
:1006A00084EF91E00E94FC0006C0833719F784EFC5
:1006B00091E00E949E0084E690E00E949E02DACFC4
:1006C0006CD008F481E0089594D088F09F5790F0A2
:1006D000B92F9927B751A0F0D1F0660F771F881F67
:1006E000991F1AF0BA95C9F712C0B13081F09BD0AA
:1006F000B1E0089598C0672F782F8827B85F39F048
:10070000B93FCCF3869577956795B395D9F73EF4C5
:1007100090958095709561957F4F8F4F9F4F08956D
:10072000E89409C097FB3EF490958095709561958B
:100730007F4F8F4F9F4F9923A9F0F92F96E9BB2741
:100740009395F695879577956795B795F111F8CFBD
:10075000FAF4BB0F11F460FF1BC06F5F7F4F8F4F28
:100760009F4F16C0882311F096E911C0772321F01E
:100770009EE8872F762F05C0662371F096E8862FB6
:1007800070E060E02AF09A95660F771F881FDAF70D
:10079000880F9695879597F90895990F0008550F3A
:1007A000AA0BE0E8FEEF16161706E807F907C0F0F7
:1007B00012161306E407F50798F0621B730B840BFF
:1007C000950B39F40A2661F0232B242B252B21F4D9
:1007D00008950A2609F4A140A6958FEF811D811D79
:1007E000089557FD9058440F551F59F05F3F71F021
:1007F0004795880F97FB991F61F09F3F79F0879588
:100800000895121613061406551FF2CF4695F1DF10
:1008100008C0161617061806991FF1CF86957105A0
:10082000610508940895E894BB2766277727CB01D4
:1008300097F90895B2DF08F48FEF08950BD078C0D0
:1008400069D028F06ED018F0952309F05AC05FC027
:100850001124EACFC6DFA0F3959FD1F3950F50E0A6
:10086000551F629FF001729FBB27F00DB11D639F62
:10087000AA27F00DB11DAA1F649F6627B00DA11D08
:10088000661F829F2227B00DA11D621F739FB00DAE
:10089000A11D621F839FA00D611D221F749F33271E
:1008A000A00D611D231F849F600D211D822F762FB7
:1008B0006A2F11249F5750408AF0E1F088234AF0B4
:1008C000EE0FFF1FBB1F661F771F881F9150504000
:1008D000A9F79E3F510570F014C0A6CF5F3FECF31F
:1008E000983EDCF3869577956795B795F795E795EC
:1008F0009F5FC1F7FE2B880F911D9695879597F9FD
:10090000089597F99F6780E870E060E008959FEF91
:1009100080EC089500240A94161617061806090696
:10092000089500240A941216130614060506089565
:10093000092E0394000C11F4882352F0BB0F40F4ED
:10094000BF2B11F460FF04C06F5F7F4F8F4F9F4F2D
:060950000895F894FFCFAA
:00000001FF
